{
  "contractName": "VotingSystem",
  "abi": [
    {
      "inputs": [],
      "stateMutability": "nonpayable",
      "type": "constructor"
    },
    {
      "inputs": [
        {
          "internalType": "uint256",
          "name": "",
          "type": "uint256"
        }
      ],
      "name": "candidateList",
      "outputs": [
        {
          "internalType": "address",
          "name": "",
          "type": "address"
        }
      ],
      "stateMutability": "view",
      "type": "function",
      "constant": true
    },
    {
      "inputs": [
        {
          "internalType": "address",
          "name": "",
          "type": "address"
        }
      ],
      "name": "candidates",
      "outputs": [
        {
          "internalType": "bool",
          "name": "",
          "type": "bool"
        }
      ],
      "stateMutability": "view",
      "type": "function",
      "constant": true
    },
    {
      "inputs": [],
      "name": "currentRound",
      "outputs": [
        {
          "internalType": "uint256",
          "name": "",
          "type": "uint256"
        }
      ],
      "stateMutability": "view",
      "type": "function",
      "constant": true
    },
    {
      "inputs": [
        {
          "internalType": "address",
          "name": "",
          "type": "address"
        }
      ],
      "name": "lastVotedRound",
      "outputs": [
        {
          "internalType": "uint256",
          "name": "",
          "type": "uint256"
        }
      ],
      "stateMutability": "view",
      "type": "function",
      "constant": true
    },
    {
      "inputs": [],
      "name": "owner",
      "outputs": [
        {
          "internalType": "address",
          "name": "",
          "type": "address"
        }
      ],
      "stateMutability": "view",
      "type": "function",
      "constant": true
    },
    {
      "inputs": [],
      "name": "votersInCurrentRound",
      "outputs": [
        {
          "internalType": "uint256",
          "name": "",
          "type": "uint256"
        }
      ],
      "stateMutability": "view",
      "type": "function",
      "constant": true
    },
    {
      "inputs": [
        {
          "internalType": "address",
          "name": "",
          "type": "address"
        }
      ],
      "name": "votes",
      "outputs": [
        {
          "internalType": "uint256",
          "name": "",
          "type": "uint256"
        }
      ],
      "stateMutability": "view",
      "type": "function",
      "constant": true
    },
    {
      "inputs": [],
      "name": "votingOpen",
      "outputs": [
        {
          "internalType": "bool",
          "name": "",
          "type": "bool"
        }
      ],
      "stateMutability": "view",
      "type": "function",
      "constant": true
    },
    {
      "inputs": [
        {
          "internalType": "address",
          "name": "",
          "type": "address"
        }
      ],
      "name": "whitelisted",
      "outputs": [
        {
          "internalType": "bool",
          "name": "",
          "type": "bool"
        }
      ],
      "stateMutability": "view",
      "type": "function",
      "constant": true
    },
    {
      "inputs": [
        {
          "internalType": "uint256",
          "name": "",
          "type": "uint256"
        }
      ],
      "name": "whitelistedList",
      "outputs": [
        {
          "internalType": "address",
          "name": "",
          "type": "address"
        }
      ],
      "stateMutability": "view",
      "type": "function",
      "constant": true
    },
    {
      "inputs": [
        {
          "internalType": "address",
          "name": "candidate",
          "type": "address"
        }
      ],
      "name": "addCandidate",
      "outputs": [],
      "stateMutability": "nonpayable",
      "type": "function"
    },
    {
      "inputs": [
        {
          "internalType": "address",
          "name": "candidate",
          "type": "address"
        }
      ],
      "name": "removeCandidate",
      "outputs": [],
      "stateMutability": "nonpayable",
      "type": "function"
    },
    {
      "inputs": [
        {
          "internalType": "address",
          "name": "voter",
          "type": "address"
        }
      ],
      "name": "addWhitelisted",
      "outputs": [],
      "stateMutability": "nonpayable",
      "type": "function"
    },
    {
      "inputs": [
        {
          "internalType": "address",
          "name": "voter",
          "type": "address"
        }
      ],
      "name": "removeWhitelisted",
      "outputs": [],
      "stateMutability": "nonpayable",
      "type": "function"
    },
    {
      "inputs": [],
      "name": "startVoting",
      "outputs": [],
      "stateMutability": "nonpayable",
      "type": "function"
    },
    {
      "inputs": [],
      "name": "endVoting",
      "outputs": [],
      "stateMutability": "nonpayable",
      "type": "function"
    },
    {
      "inputs": [
        {
          "internalType": "address",
          "name": "candidate",
          "type": "address"
        }
      ],
      "name": "vote",
      "outputs": [],
      "stateMutability": "nonpayable",
      "type": "function"
    },
    {
      "inputs": [],
      "name": "getWinner",
      "outputs": [
        {
          "internalType": "address[]",
          "name": "",
          "type": "address[]"
        }
      ],
      "stateMutability": "view",
      "type": "function",
      "constant": true
    },
    {
      "inputs": [
        {
          "internalType": "address",
          "name": "_address",
          "type": "address"
        }
      ],
      "name": "checkIfCandidate",
      "outputs": [
        {
          "internalType": "bool",
          "name": "",
          "type": "bool"
        }
      ],
      "stateMutability": "view",
      "type": "function",
      "constant": true
    },
    {
      "inputs": [
        {
          "internalType": "address",
          "name": "_address",
          "type": "address"
        }
      ],
      "name": "checkIfWhitelisted",
      "outputs": [
        {
          "internalType": "bool",
          "name": "",
          "type": "bool"
        }
      ],
      "stateMutability": "view",
      "type": "function",
      "constant": true
    },
    {
      "inputs": [
        {
          "internalType": "address",
          "name": "newOwner",
          "type": "address"
        }
      ],
      "name": "transferOwnership",
      "outputs": [],
      "stateMutability": "nonpayable",
      "type": "function"
    },
    {
      "inputs": [],
      "name": "totalWhitelisted",
      "outputs": [
        {
          "internalType": "uint256",
          "name": "",
          "type": "uint256"
        }
      ],
      "stateMutability": "view",
      "type": "function",
      "constant": true
    },
    {
      "inputs": [],
      "name": "votingPercentage",
      "outputs": [
        {
          "internalType": "uint256",
          "name": "",
          "type": "uint256"
        }
      ],
      "stateMutability": "view",
      "type": "function",
      "constant": true
    },
    {
      "inputs": [],
      "name": "removeAllCandidates",
      "outputs": [],
      "stateMutability": "nonpayable",
      "type": "function"
    },
    {
      "inputs": [],
      "name": "removeAllWhitelisted",
      "outputs": [],
      "stateMutability": "nonpayable",
      "type": "function"
    },
    {
      "inputs": [],
      "name": "leaderboard",
      "outputs": [
        {
          "internalType": "address[]",
          "name": "",
          "type": "address[]"
        }
      ],
      "stateMutability": "view",
      "type": "function",
      "constant": true
    }
  ],
  "bytecode": "0x60806040526000600660006101000a81548160ff0219169083151502179055506000600755600060085534801561003557600080fd5b50336000806101000a81548173ffffffffffffffffffffffffffffffffffffffff021916908373ffffffffffffffffffffffffffffffffffffffff16021790555061263e806100856000396000f3fe608060405234801561001057600080fd5b506004361061018e5760003560e01c80638da5cb5b116100de578063d649318811610097578063dfc58d3711610071578063dfc58d3714610471578063eb56b7401461048f578063f2fde38b146104ad578063f77683a0146104c95761018e565b8063d6493188146103e1578063d8bff5a514610411578063d936547e146104415761018e565b80638da5cb5b1461032f5780638e7ea5b21461034d578063a95824b41461036b578063b13c744b14610389578063c3403ddf146103b9578063cddb5fae146103c35761018e565b8063291d95491161014b5780636dd091f9116101255780636dd091f9146102a95780636dd7d8ea146102c55780638a19c8bc146102e15780638ab66a90146102ff5761018e565b8063291d9549146102675780633acd75f81461028357806346ee14fd1461029f5761018e565b806304072b201461019357806305c8d3eb146101b157806310154bad146101e15780631d7be03e146101fd5780631ec6b60a1461022d5780632660a92e14610237575b600080fd5b61019b6104d3565b6040516101a89190611df9565b60405180910390f35b6101cb60048036038101906101c69190611e45565b6104e0565b6040516101d89190611eb3565b60405180910390f35b6101fb60048036038101906101f69190611efa565b61051f565b005b61021760048036038101906102129190611efa565b610718565b6040516102249190611f42565b60405180910390f35b61023561076e565b005b610251600480360381019061024c9190611efa565b61085b565b60405161025e9190611f42565b60405180910390f35b610281600480360381019061027c9190611efa565b6108b1565b005b61029d60048036038101906102989190611efa565b610b41565b005b6102a7610d39565b005b6102c360048036038101906102be9190611efa565b610eab565b005b6102df60048036038101906102da9190611efa565b61113b565b005b6102e96113b3565b6040516102f69190611df9565b60405180910390f35b61031960048036038101906103149190611efa565b6113b9565b6040516103269190611f42565b60405180910390f35b6103376113d9565b6040516103449190611eb3565b60405180910390f35b6103556113fd565b604051610362919061201b565b60405180910390f35b610373611687565b6040516103809190611f42565b60405180910390f35b6103a3600480360381019061039e9190611e45565b61169a565b6040516103b09190611eb3565b60405180910390f35b6103c16116d9565b005b6103cb61179d565b6040516103d89190611df9565b60405180910390f35b6103fb60048036038101906103f69190611efa565b6117a3565b6040516104089190611df9565b60405180910390f35b61042b60048036038101906104269190611efa565b6117bb565b6040516104389190611df9565b60405180910390f35b61045b60048036038101906104569190611efa565b6117d3565b6040516104689190611f42565b60405180910390f35b6104796117f3565b6040516104869190611df9565b60405180910390f35b610497611830565b6040516104a4919061201b565b60405180910390f35b6104c760048036038101906104c29190611efa565b611aec565b005b6104d1611b87565b005b6000600580549050905090565b600581815481106104f057600080fd5b906000526020600020016000915054906101000a900473ffffffffffffffffffffffffffffffffffffffff1681565b60008054906101000a900473ffffffffffffffffffffffffffffffffffffffff1673ffffffffffffffffffffffffffffffffffffffff163373ffffffffffffffffffffffffffffffffffffffff161461057757600080fd5b600660009054906101000a900460ff16156105c7576040517f08c379a00000000000000000000000000000000000000000000000000000000081526004016105be9061209a565b60405180910390fd5b60001515600260008373ffffffffffffffffffffffffffffffffffffffff1673ffffffffffffffffffffffffffffffffffffffff16815260200190815260200160002060009054906101000a900460ff1615151461065a576040517f08c379a000000000000000000000000000000000000000000000000000000000815260040161065190612106565b60405180910390fd5b6001600260008373ffffffffffffffffffffffffffffffffffffffff1673ffffffffffffffffffffffffffffffffffffffff16815260200190815260200160002060006101000a81548160ff0219169083151502179055506005819080600181540180825580915050600190039060005260206000200160009091909190916101000a81548173ffffffffffffffffffffffffffffffffffffffff021916908373ffffffffffffffffffffffffffffffffffffffff16021790555050565b6000600160008373ffffffffffffffffffffffffffffffffffffffff1673ffffffffffffffffffffffffffffffffffffffff16815260200190815260200160002060009054906101000a900460ff169050919050565b60008054906101000a900473ffffffffffffffffffffffffffffffffffffffff1673ffffffffffffffffffffffffffffffffffffffff163373ffffffffffffffffffffffffffffffffffffffff16146107c657600080fd5b600660009054906101000a900460ff1615610816576040517f08c379a000000000000000000000000000000000000000000000000000000000815260040161080d9061209a565b60405180910390fd5b6001600660006101000a81548160ff0219169083151502179055506008600081548092919061084490612155565b91905055506000600781905550610859611cf9565b565b6000600260008373ffffffffffffffffffffffffffffffffffffffff1673ffffffffffffffffffffffffffffffffffffffff16815260200190815260200160002060009054906101000a900460ff169050919050565b60008054906101000a900473ffffffffffffffffffffffffffffffffffffffff1673ffffffffffffffffffffffffffffffffffffffff163373ffffffffffffffffffffffffffffffffffffffff161461090957600080fd5b600660009054906101000a900460ff1615610959576040517f08c379a00000000000000000000000000000000000000000000000000000000081526004016109509061209a565b60405180910390fd5b6000600260008373ffffffffffffffffffffffffffffffffffffffff1673ffffffffffffffffffffffffffffffffffffffff16815260200190815260200160002060006101000a81548160ff02191690831515021790555060005b600580549050811015610b3d578173ffffffffffffffffffffffffffffffffffffffff16600582815481106109ec576109eb61219d565b5b9060005260206000200160009054906101000a900473ffffffffffffffffffffffffffffffffffffffff1673ffffffffffffffffffffffffffffffffffffffff1603610b2a5760056001600580549050610a4691906121cc565b81548110610a5757610a5661219d565b5b9060005260206000200160009054906101000a900473ffffffffffffffffffffffffffffffffffffffff1660058281548110610a9657610a9561219d565b5b9060005260206000200160006101000a81548173ffffffffffffffffffffffffffffffffffffffff021916908373ffffffffffffffffffffffffffffffffffffffff1602179055506005805480610af057610aef612200565b5b6001900381819060005260206000200160006101000a81549073ffffffffffffffffffffffffffffffffffffffff02191690559055610b3d565b8080610b3590612155565b9150506109b4565b5050565b60008054906101000a900473ffffffffffffffffffffffffffffffffffffffff1673ffffffffffffffffffffffffffffffffffffffff163373ffffffffffffffffffffffffffffffffffffffff1614610b9957600080fd5b600660009054906101000a900460ff1615610be9576040517f08c379a0000000000000000000000000000000000000000000000000000000008152600401610be09061209a565b60405180910390fd5b60001515600160008373ffffffffffffffffffffffffffffffffffffffff1673ffffffffffffffffffffffffffffffffffffffff16815260200190815260200160002060009054906101000a900460ff16151514610c7c576040517f08c379a0000000000000000000000000000000000000000000000000000000008152600401610c739061227b565b60405180910390fd5b60018060008373ffffffffffffffffffffffffffffffffffffffff1673ffffffffffffffffffffffffffffffffffffffff16815260200190815260200160002060006101000a81548160ff0219169083151502179055506004819080600181540180825580915050600190039060005260206000200160009091909190916101000a81548173ffffffffffffffffffffffffffffffffffffffff021916908373ffffffffffffffffffffffffffffffffffffffff16021790555050565b60008054906101000a900473ffffffffffffffffffffffffffffffffffffffff1673ffffffffffffffffffffffffffffffffffffffff163373ffffffffffffffffffffffffffffffffffffffff1614610d9157600080fd5b600660009054906101000a900460ff1615610de1576040517f08c379a0000000000000000000000000000000000000000000000000000000008152600401610dd89061209a565b60405180910390fd5b60005b600580549050811015610e9a5760006002600060058481548110610e0b57610e0a61219d565b5b9060005260206000200160009054906101000a900473ffffffffffffffffffffffffffffffffffffffff1673ffffffffffffffffffffffffffffffffffffffff1673ffffffffffffffffffffffffffffffffffffffff16815260200190815260200160002060006101000a81548160ff0219169083151502179055508080610e9290612155565b915050610de4565b5060056000610ea99190611da2565b565b60008054906101000a900473ffffffffffffffffffffffffffffffffffffffff1673ffffffffffffffffffffffffffffffffffffffff163373ffffffffffffffffffffffffffffffffffffffff1614610f0357600080fd5b600660009054906101000a900460ff1615610f53576040517f08c379a0000000000000000000000000000000000000000000000000000000008152600401610f4a9061209a565b60405180910390fd5b6000600160008373ffffffffffffffffffffffffffffffffffffffff1673ffffffffffffffffffffffffffffffffffffffff16815260200190815260200160002060006101000a81548160ff02191690831515021790555060005b600480549050811015611137578173ffffffffffffffffffffffffffffffffffffffff1660048281548110610fe657610fe561219d565b5b9060005260206000200160009054906101000a900473ffffffffffffffffffffffffffffffffffffffff1673ffffffffffffffffffffffffffffffffffffffff1603611124576004600160048054905061104091906121cc565b815481106110515761105061219d565b5b9060005260206000200160009054906101000a900473ffffffffffffffffffffffffffffffffffffffff16600482815481106110905761108f61219d565b5b9060005260206000200160006101000a81548173ffffffffffffffffffffffffffffffffffffffff021916908373ffffffffffffffffffffffffffffffffffffffff16021790555060048054806110ea576110e9612200565b5b6001900381819060005260206000200160006101000a81549073ffffffffffffffffffffffffffffffffffffffff02191690559055611137565b808061112f90612155565b915050610fae565b5050565b60011515600260003373ffffffffffffffffffffffffffffffffffffffff1673ffffffffffffffffffffffffffffffffffffffff16815260200190815260200160002060009054906101000a900460ff1615151461119857600080fd5b600660009054906101000a900460ff166111e7576040517f08c379a00000000000000000000000000000000000000000000000000000000081526004016111de906122e7565b60405180910390fd5b60011515600160008373ffffffffffffffffffffffffffffffffffffffff1673ffffffffffffffffffffffffffffffffffffffff16815260200190815260200160002060009054906101000a900460ff1615151461127a576040517f08c379a000000000000000000000000000000000000000000000000000000000815260040161127190612353565b60405180910390fd5b600854600960003373ffffffffffffffffffffffffffffffffffffffff1673ffffffffffffffffffffffffffffffffffffffff16815260200190815260200160002054106112fd576040517f08c379a00000000000000000000000000000000000000000000000000000000081526004016112f4906123e5565b60405180910390fd5b600360008273ffffffffffffffffffffffffffffffffffffffff1673ffffffffffffffffffffffffffffffffffffffff168152602001908152602001600020600081548092919061134d90612155565b9190505550600854600960003373ffffffffffffffffffffffffffffffffffffffff1673ffffffffffffffffffffffffffffffffffffffff16815260200190815260200160002081905550600760008154809291906113ab90612155565b919050555050565b60085481565b60016020528060005260406000206000915054906101000a900460ff1681565b60008054906101000a900473ffffffffffffffffffffffffffffffffffffffff1681565b6060600060085411801561141e5750600660009054906101000a900460ff16155b61145d576040517f08c379a000000000000000000000000000000000000000000000000000000000815260040161145490612477565b60405180910390fd5b6000600480549050116114a5576040517f08c379a000000000000000000000000000000000000000000000000000000000815260040161149c906124e3565b60405180910390fd5b60006114af611830565b9050600060036000836000815181106114cb576114ca61219d565b5b602002602001015173ffffffffffffffffffffffffffffffffffffffff1673ffffffffffffffffffffffffffffffffffffffff1681526020019081526020016000205490506000805b83518110156115a85782600360008684815181106115355761153461219d565b5b602002602001015173ffffffffffffffffffffffffffffffffffffffff1673ffffffffffffffffffffffffffffffffffffffff168152602001908152602001600020540361159057818061158890612155565b925050611595565b6115a8565b80806115a090612155565b915050611514565b5060008167ffffffffffffffff8111156115c5576115c4612503565b5b6040519080825280602002602001820160405280156115f35781602001602082028036833780820191505090505b50905060005b8281101561167c578481815181106116145761161361219d565b5b602002602001015182828151811061162f5761162e61219d565b5b602002602001019073ffffffffffffffffffffffffffffffffffffffff16908173ffffffffffffffffffffffffffffffffffffffff1681525050808061167490612155565b9150506115f9565b508094505050505090565b600660009054906101000a900460ff1681565b600481815481106116aa57600080fd5b906000526020600020016000915054906101000a900473ffffffffffffffffffffffffffffffffffffffff1681565b60008054906101000a900473ffffffffffffffffffffffffffffffffffffffff1673ffffffffffffffffffffffffffffffffffffffff163373ffffffffffffffffffffffffffffffffffffffff161461173157600080fd5b600660009054906101000a900460ff16611780576040517f08c379a0000000000000000000000000000000000000000000000000000000008152600401611777906122e7565b60405180910390fd5b6000600660006101000a81548160ff021916908315150217905550565b60075481565b60096020528060005260406000206000915090505481565b60036020528060005260406000206000915090505481565b60026020528060005260406000206000915054906101000a900460ff1681565b6000806117fe6104d3565b905060008114611827578060646007546118189190612532565b61182291906125a3565b61182a565b60005b91505090565b606060006004805490501161187a576040517f08c379a0000000000000000000000000000000000000000000000000000000008152600401611871906124e3565b60405180910390fd5b600060048054806020026020016040519081016040528092919081815260200182805480156118fe57602002820191906000526020600020905b8160009054906101000a900473ffffffffffffffffffffffffffffffffffffffff1673ffffffffffffffffffffffffffffffffffffffff16815260200190600101908083116118b4575b5050505050905060005b8151811015611ae457600060018261192091906125d4565b90505b8251811015611ad057600360008484815181106119435761194261219d565b5b602002602001015173ffffffffffffffffffffffffffffffffffffffff1673ffffffffffffffffffffffffffffffffffffffff168152602001908152602001600020546003600085848151811061199d5761199c61219d565b5b602002602001015173ffffffffffffffffffffffffffffffffffffffff1673ffffffffffffffffffffffffffffffffffffffff168152602001908152602001600020541115611abd5760008383815181106119fb576119fa61219d565b5b60200260200101519050838281518110611a1857611a1761219d565b5b6020026020010151848481518110611a3357611a3261219d565b5b602002602001019073ffffffffffffffffffffffffffffffffffffffff16908173ffffffffffffffffffffffffffffffffffffffff168152505080848381518110611a8157611a8061219d565b5b602002602001019073ffffffffffffffffffffffffffffffffffffffff16908173ffffffffffffffffffffffffffffffffffffffff1681525050505b8080611ac890612155565b915050611923565b508080611adc90612155565b915050611908565b508091505090565b60008054906101000a900473ffffffffffffffffffffffffffffffffffffffff1673ffffffffffffffffffffffffffffffffffffffff163373ffffffffffffffffffffffffffffffffffffffff1614611b4457600080fd5b806000806101000a81548173ffffffffffffffffffffffffffffffffffffffff021916908373ffffffffffffffffffffffffffffffffffffffff16021790555050565b60008054906101000a900473ffffffffffffffffffffffffffffffffffffffff1673ffffffffffffffffffffffffffffffffffffffff163373ffffffffffffffffffffffffffffffffffffffff1614611bdf57600080fd5b600660009054906101000a900460ff1615611c2f576040517f08c379a0000000000000000000000000000000000000000000000000000000008152600401611c269061209a565b60405180910390fd5b60005b600480549050811015611ce85760006001600060048481548110611c5957611c5861219d565b5b9060005260206000200160009054906101000a900473ffffffffffffffffffffffffffffffffffffffff1673ffffffffffffffffffffffffffffffffffffffff1673ffffffffffffffffffffffffffffffffffffffff16815260200190815260200160002060006101000a81548160ff0219169083151502179055508080611ce090612155565b915050611c32565b5060046000611cf79190611da2565b565b60005b600480549050811015611d9f5760006003600060048481548110611d2357611d2261219d565b5b9060005260206000200160009054906101000a900473ffffffffffffffffffffffffffffffffffffffff1673ffffffffffffffffffffffffffffffffffffffff1673ffffffffffffffffffffffffffffffffffffffff168152602001908152602001600020819055508080611d9790612155565b915050611cfc565b50565b5080546000825590600052602060002090810190611dc09190611dc3565b50565b5b80821115611ddc576000816000905550600101611dc4565b5090565b6000819050919050565b611df381611de0565b82525050565b6000602082019050611e0e6000830184611dea565b92915050565b600080fd5b611e2281611de0565b8114611e2d57600080fd5b50565b600081359050611e3f81611e19565b92915050565b600060208284031215611e5b57611e5a611e14565b5b6000611e6984828501611e30565b91505092915050565b600073ffffffffffffffffffffffffffffffffffffffff82169050919050565b6000611e9d82611e72565b9050919050565b611ead81611e92565b82525050565b6000602082019050611ec86000830184611ea4565b92915050565b611ed781611e92565b8114611ee257600080fd5b50565b600081359050611ef481611ece565b92915050565b600060208284031215611f1057611f0f611e14565b5b6000611f1e84828501611ee5565b91505092915050565b60008115159050919050565b611f3c81611f27565b82525050565b6000602082019050611f576000830184611f33565b92915050565b600081519050919050565b600082825260208201905092915050565b6000819050602082019050919050565b611f9281611e92565b82525050565b6000611fa48383611f89565b60208301905092915050565b6000602082019050919050565b6000611fc882611f5d565b611fd28185611f68565b9350611fdd83611f79565b8060005b8381101561200e578151611ff58882611f98565b975061200083611fb0565b925050600181019050611fe1565b5085935050505092915050565b600060208201905081810360008301526120358184611fbd565b905092915050565b600082825260208201905092915050565b7f566f74696e672069732063757272656e746c79206f70656e0000000000000000600082015250565b600061208460188361203d565b915061208f8261204e565b602082019050919050565b600060208201905081810360008301526120b381612077565b9050919050565b7f566f74657220697320616c726561647920616464656400000000000000000000600082015250565b60006120f060168361203d565b91506120fb826120ba565b602082019050919050565b6000602082019050818103600083015261211f816120e3565b9050919050565b7f4e487b7100000000000000000000000000000000000000000000000000000000600052601160045260246000fd5b600061216082611de0565b91507fffffffffffffffffffffffffffffffffffffffffffffffffffffffffffffffff820361219257612191612126565b5b600182019050919050565b7f4e487b7100000000000000000000000000000000000000000000000000000000600052603260045260246000fd5b60006121d782611de0565b91506121e283611de0565b92508282039050818111156121fa576121f9612126565b5b92915050565b7f4e487b7100000000000000000000000000000000000000000000000000000000600052603160045260246000fd5b7f43616e64696461746520697320616c7265616479206164646564000000000000600082015250565b6000612265601a8361203d565b91506122708261222f565b602082019050919050565b6000602082019050818103600083015261229481612258565b9050919050565b7f566f74696e67206973206e6f742063757272656e746c79206f70656e00000000600082015250565b60006122d1601c8361203d565b91506122dc8261229b565b602082019050919050565b60006020820190508181036000830152612300816122c4565b9050919050565b7f43616e64696461746520646f6573206e6f742065786973740000000000000000600082015250565b600061233d60188361203d565b915061234882612307565b602082019050919050565b6000602082019050818103600083015261236c81612330565b9050919050565b7f596f75206861766520616c726561647920766f74656420696e2074686973207260008201527f6f756e6400000000000000000000000000000000000000000000000000000000602082015250565b60006123cf60248361203d565b91506123da82612373565b604082019050919050565b600060208201905081810360008301526123fe816123c2565b9050919050565b7f566f74696e6720686173206e6f7420656e646564206f7220686173206e6f742060008201527f7374617274656420796574000000000000000000000000000000000000000000602082015250565b6000612461602b8361203d565b915061246c82612405565b604082019050919050565b6000602082019050818103600083015261249081612454565b9050919050565b7f4e6f2063616e6469646174657300000000000000000000000000000000000000600082015250565b60006124cd600d8361203d565b91506124d882612497565b602082019050919050565b600060208201905081810360008301526124fc816124c0565b9050919050565b7f4e487b7100000000000000000000000000000000000000000000000000000000600052604160045260246000fd5b600061253d82611de0565b915061254883611de0565b925082820261255681611de0565b9150828204841483151761256d5761256c612126565b5b5092915050565b7f4e487b7100000000000000000000000000000000000000000000000000000000600052601260045260246000fd5b60006125ae82611de0565b91506125b983611de0565b9250826125c9576125c8612574565b5b828204905092915050565b60006125df82611de0565b91506125ea83611de0565b925082820190508082111561260257612601612126565b5b9291505056fea2646970667358221220efe4e1ce487ff8f6ba90f40ad310994086859adf1e1c2746a138dcbcbdb4f43164736f6c63430008130033",
  "immutableReferences": {},
  "source": "//SPDX-License-Identifier: UNLICENSED\r\npragma solidity >=0.6.0 <0.9.0;\r\n\r\ncontract VotingSystem {\r\n    address public owner;\r\n    mapping (address => bool) public candidates;\r\n    mapping (address => bool) public whitelisted;\r\n    mapping (address => uint) public votes;\r\n    address[] public candidateList;\r\n    address[] public whitelistedList;\r\n    bool public votingOpen = false;\r\n    uint public votersInCurrentRound = 0;\r\n    uint public currentRound = 0;\r\n    mapping (address => uint) public lastVotedRound;\r\n\r\n    modifier onlyOwner {\r\n        require(msg.sender == owner);\r\n        _;\r\n    }\r\n\r\n    modifier votingEnded {\r\n        require(currentRound > 0 && !votingOpen, \"Voting has not ended or has not started yet\");\r\n        _;\r\n    }\r\n\r\n    modifier onlyWhitelisted {\r\n        require(whitelisted[msg.sender] == true);\r\n        _;\r\n    }\r\n\r\n    constructor() {\r\n        owner = msg.sender;\r\n    }\r\n\r\n    function addCandidate(address candidate) public onlyOwner {\r\n        require(!votingOpen, \"Voting is currently open\");\r\n        require(candidates[candidate] == false, \"Candidate is already added\");\r\n        candidates[candidate] = true;\r\n        candidateList.push(candidate);\r\n}\r\n\r\n\r\n    function removeCandidate(address candidate) public onlyOwner {\r\n        require(!votingOpen, \"Voting is currently open\");\r\n        candidates[candidate] = false;\r\n        for (uint i = 0; i < candidateList.length; i++) { // Remove from the list\r\n            if (candidateList[i] == candidate) {\r\n                candidateList[i] = candidateList[candidateList.length - 1];\r\n                candidateList.pop();\r\n                break;\r\n            }\r\n        }\r\n    }\r\n\r\n    function addWhitelisted(address voter) public onlyOwner {\r\n        require(!votingOpen, \"Voting is currently open\");\r\n        require(whitelisted[voter] == false, \"Voter is already added\");\r\n        whitelisted[voter] = true;\r\n        whitelistedList.push(voter); // Add to the list\r\n    }\r\n\r\n    function removeWhitelisted(address voter) public onlyOwner {\r\n        require(!votingOpen, \"Voting is currently open\");\r\n        whitelisted[voter] = false;\r\n        for (uint i = 0; i < whitelistedList.length; i++) { // Remove from the list\r\n            if (whitelistedList[i] == voter) {\r\n                whitelistedList[i] = whitelistedList[whitelistedList.length - 1];\r\n                whitelistedList.pop();\r\n                break;\r\n            }\r\n        }\r\n    }\r\n\r\n    function resetVotes() private {\r\n        for (uint i = 0; i < candidateList.length; i++) {\r\n            votes[candidateList[i]] = 0;\r\n        }\r\n    }\r\n\r\n    function startVoting() public onlyOwner {\r\n        require(!votingOpen, \"Voting is currently open\");\r\n        votingOpen = true;\r\n        currentRound++;\r\n        votersInCurrentRound = 0; // Reset the voters count for the new round\r\n        resetVotes(); // Reset votes for each candidate\r\n    }\r\n\r\n    function endVoting() public onlyOwner {\r\n        require(votingOpen, \"Voting is not currently open\");\r\n        votingOpen = false;\r\n    }\r\n\r\n    function vote(address candidate) public onlyWhitelisted {\r\n        require(votingOpen, \"Voting is not currently open\");\r\n        require(candidates[candidate] == true, \"Candidate does not exist\");\r\n        require(lastVotedRound[msg.sender] < currentRound, \"You have already voted in this round\");\r\n\r\n        votes[candidate]++;\r\n        lastVotedRound[msg.sender] = currentRound;\r\n        votersInCurrentRound++;\r\n    }\r\n\r\n    function getWinner() public view votingEnded returns (address[] memory) {\r\n        require(candidateList.length > 0, \"No candidates\");\r\n        \r\n        address[] memory sortedCandidates = leaderboard();\r\n        uint topVotes = votes[sortedCandidates[0]];\r\n        \r\n        // Calculate the count of winners\r\n        uint winnersCount = 0;\r\n        for (uint i = 0; i < sortedCandidates.length; i++) {\r\n            if (votes[sortedCandidates[i]] == topVotes) {\r\n                winnersCount++;\r\n            } else {\r\n                break;\r\n            }\r\n        }\r\n        \r\n        // Fill the winners array\r\n        address[] memory winners = new address[](winnersCount);\r\n        for (uint i = 0; i < winnersCount; i++) {\r\n            winners[i] = sortedCandidates[i];\r\n        }\r\n\r\n        return winners;\r\n    }\r\n\r\n    function checkIfCandidate(address _address) public view returns (bool) {\r\n        return candidates[_address];\r\n    }\r\n\r\n    function checkIfWhitelisted(address _address) public view returns (bool) {\r\n        return whitelisted[_address];\r\n    }\r\n\r\n    function transferOwnership(address newOwner) public onlyOwner {\r\n        owner = newOwner;\r\n    }\r\n\r\n    function totalWhitelisted() public view returns (uint) {\r\n        return whitelistedList.length;\r\n    }\r\n\r\n    function votingPercentage() public view returns (uint) {\r\n        uint total = totalWhitelisted();\r\n\r\n        return total == 0 ? 0 : (votersInCurrentRound * 100) / total;\r\n    }\r\n\r\n    function removeAllCandidates() public onlyOwner {\r\n        require(!votingOpen, \"Voting is currently open\");\r\n        for (uint i = 0; i < candidateList.length; i++) {\r\n            candidates[candidateList[i]] = false;\r\n        }\r\n        delete candidateList;\r\n    }\r\n\r\n    function removeAllWhitelisted() public onlyOwner {\r\n        require(!votingOpen, \"Voting is currently open\");\r\n        for (uint i = 0; i < whitelistedList.length; i++) {\r\n            whitelisted[whitelistedList[i]] = false;\r\n        }\r\n        delete whitelistedList;\r\n    }\r\n\r\n    function leaderboard() public view returns (address[] memory) {\r\n        require(candidateList.length > 0, \"No candidates\");\r\n        address[] memory sortedCandidates = candidateList;\r\n\r\n        for (uint i = 0; i < sortedCandidates.length; i++) {\r\n            for (uint j = i + 1; j < sortedCandidates.length; j++) {\r\n                if (votes[sortedCandidates[j]] > votes[sortedCandidates[i]]) {\r\n                    address temp = sortedCandidates[i];\r\n                    sortedCandidates[i] = sortedCandidates[j];\r\n                    sortedCandidates[j] = temp;\r\n                }\r\n            }\r\n        }\r\n\r\n        return sortedCandidates;\r\n    }\r\n}",
  "sourcePath": "C:\\Users\\robert\\Desktop\\licenta\\licenta_v3\\Ganache testing\\contracts\\VotingSystem.sol",
  "compiler": {
    "name": "solc",
    "version": "0.8.19+commit.7dd6d404.Emscripten.clang"
  },
  "schemaVersion": "3.4.14",
  "updatedAt": "2023-06-27T10:18:37.630Z",
  "networkType": "ethereum",
  "devdoc": {
    "kind": "dev",
    "methods": {},
    "version": 1
  },
  "userdoc": {
    "kind": "user",
    "methods": {},
    "version": 1
  }
}